{
  "contractName": "PocDap",
  "abi": [
    {
      "constant": false,
      "inputs": [],
      "name": "renounceOwnership",
      "outputs": [],
      "payable": false,
      "stateMutability": "nonpayable",
      "type": "function"
    },
    {
      "constant": true,
      "inputs": [],
      "name": "owner",
      "outputs": [
        {
          "name": "",
          "type": "address"
        }
      ],
      "payable": false,
      "stateMutability": "view",
      "type": "function"
    },
    {
      "constant": false,
      "inputs": [
        {
          "name": "_newOwner",
          "type": "address"
        }
      ],
      "name": "transferOwnership",
      "outputs": [],
      "payable": false,
      "stateMutability": "nonpayable",
      "type": "function"
    },
    {
      "inputs": [],
      "payable": false,
      "stateMutability": "nonpayable",
      "type": "constructor"
    },
    {
      "payable": false,
      "stateMutability": "nonpayable",
      "type": "fallback"
    },
    {
      "anonymous": false,
      "inputs": [
        {
          "indexed": false,
          "name": "result",
          "type": "string"
        }
      ],
      "name": "CallbackReceived",
      "type": "event"
    },
    {
      "anonymous": false,
      "inputs": [
        {
          "indexed": true,
          "name": "previousOwner",
          "type": "address"
        }
      ],
      "name": "OwnershipRenounced",
      "type": "event"
    },
    {
      "anonymous": false,
      "inputs": [
        {
          "indexed": true,
          "name": "previousOwner",
          "type": "address"
        },
        {
          "indexed": true,
          "name": "newOwner",
          "type": "address"
        }
      ],
      "name": "OwnershipTransferred",
      "type": "event"
    },
    {
      "constant": false,
      "inputs": [
        {
          "name": "myid",
          "type": "bytes32"
        },
        {
          "name": "result",
          "type": "string"
        }
      ],
      "name": "__callback",
      "outputs": [],
      "payable": false,
      "stateMutability": "nonpayable",
      "type": "function"
    },
    {
      "constant": false,
      "inputs": [
        {
          "name": "id",
          "type": "bytes32"
        },
        {
          "name": "result",
          "type": "string"
        },
        {
          "name": "proof",
          "type": "bytes"
        }
      ],
      "name": "__callback",
      "outputs": [],
      "payable": false,
      "stateMutability": "nonpayable",
      "type": "function"
    },
    {
      "constant": false,
      "inputs": [],
      "name": "refreshEthPrice",
      "outputs": [],
      "payable": true,
      "stateMutability": "payable",
      "type": "function"
    },
    {
      "constant": false,
      "inputs": [],
      "name": "getOraclizeFee",
      "outputs": [
        {
          "name": "_fee",
          "type": "uint256"
        }
      ],
      "payable": false,
      "stateMutability": "nonpayable",
      "type": "function"
    },
    {
      "constant": false,
      "inputs": [],
      "name": "getFee",
      "outputs": [
        {
          "name": "_fee",
          "type": "uint256"
        }
      ],
      "payable": false,
      "stateMutability": "nonpayable",
      "type": "function"
    },
    {
      "constant": false,
      "inputs": [],
      "name": "getBalance",
      "outputs": [
        {
          "name": "_balance",
          "type": "uint256"
        }
      ],
      "payable": false,
      "stateMutability": "nonpayable",
      "type": "function"
    }
  ],
  "bytecode": "0x60806040526509184e72a0006006553480156200001b57600080fd5b5033600560006101000a81548173ffffffffffffffffffffffffffffffffffffffff021916908373ffffffffffffffffffffffffffffffffffffffff160217905550736f485c8bf6fc43ea212e93bbf8ce046c7f1cb4756000806101000a81548173ffffffffffffffffffffffffffffffffffffffff021916908373ffffffffffffffffffffffffffffffffffffffff1602179055506200011360017f01000000000000000000000000000000000000000000000000000000000000000260107f0100000000000000000000000000000000000000000000000000000000000000021762000119640100000000026401000000009004565b62000b1d565b60008060009054906101000a900473ffffffffffffffffffffffffffffffffffffffff1673ffffffffffffffffffffffffffffffffffffffff1614806200019a57506000620001986000809054906101000a900473ffffffffffffffffffffffffffffffffffffffff16620004cd640100000000026401000000009004565b145b15620001bd57620001bb6000620004d8640100000000026401000000009004565b505b6000809054906101000a900473ffffffffffffffffffffffffffffffffffffffff1673ffffffffffffffffffffffffffffffffffffffff166338cc48316040518163ffffffff167c0100000000000000000000000000000000000000000000000000000000028152600401602060405180830381600087803b1580156200024357600080fd5b505af115801562000258573d6000803e3d6000fd5b505050506040513d60208110156200026f57600080fd5b810190808051906020019092919050505073ffffffffffffffffffffffffffffffffffffffff16600160009054906101000a900473ffffffffffffffffffffffffffffffffffffffff1673ffffffffffffffffffffffffffffffffffffffff16141515620003db576000809054906101000a900473ffffffffffffffffffffffffffffffffffffffff1673ffffffffffffffffffffffffffffffffffffffff166338cc48316040518163ffffffff167c0100000000000000000000000000000000000000000000000000000000028152600401602060405180830381600087803b1580156200035d57600080fd5b505af115801562000372573d6000803e3d6000fd5b505050506040513d60208110156200038957600080fd5b8101908080519060200190929190505050600160006101000a81548173ffffffffffffffffffffffffffffffffffffffff021916908373ffffffffffffffffffffffffffffffffffffffff1602179055505b600160009054906101000a900473ffffffffffffffffffffffffffffffffffffffff1673ffffffffffffffffffffffffffffffffffffffff1663688dcfd7826040518263ffffffff167c010000000000000000000000000000000000000000000000000000000002815260040180827effffffffffffffffffffffffffffffffffffffffffffffffffffffffffffff19167effffffffffffffffffffffffffffffffffffffffffffffffffffffffffffff19168152602001915050600060405180830381600087803b158015620004b157600080fd5b505af1158015620004c6573d6000803e3d6000fd5b5050505050565b6000813b9050919050565b6000620004f3620004fa640100000000026401000000009004565b9050919050565b6000806200052b731d3b2638a7cc9f2cb3d298a3da7a90b67e5506ed620004cd640100000000026401000000009004565b1115620005df57731d3b2638a7cc9f2cb3d298a3da7a90b67e5506ed6000806101000a81548173ffffffffffffffffffffffffffffffffffffffff021916908373ffffffffffffffffffffffffffffffffffffffff160217905550620005d56040805190810160405280600b81526020017f6574685f6d61696e6e657400000000000000000000000000000000000000000081525062000a52640100000000026401000000009004565b6001905062000a4f565b60006200060f73c03a2615d5efaf5f49f60b7bb6583eaec212fdf1620004cd640100000000026401000000009004565b1115620006c35773c03a2615d5efaf5f49f60b7bb6583eaec212fdf16000806101000a81548173ffffffffffffffffffffffffffffffffffffffff021916908373ffffffffffffffffffffffffffffffffffffffff160217905550620006b96040805190810160405280600c81526020017f6574685f726f707374656e33000000000000000000000000000000000000000081525062000a52640100000000026401000000009004565b6001905062000a4f565b6000620006f373b7a07bcf2ba2f2703b24c0691b5278999c59ac7e620004cd640100000000026401000000009004565b1115620007a75773b7a07bcf2ba2f2703b24c0691b5278999c59ac7e6000806101000a81548173ffffffffffffffffffffffffffffffffffffffff021916908373ffffffffffffffffffffffffffffffffffffffff1602179055506200079d6040805190810160405280600981526020017f6574685f6b6f76616e000000000000000000000000000000000000000000000081525062000a52640100000000026401000000009004565b6001905062000a4f565b6000620007d773146500cfd35b22e4a392fe0adc06de1a1368ed48620004cd640100000000026401000000009004565b11156200088b5773146500cfd35b22e4a392fe0adc06de1a1368ed486000806101000a81548173ffffffffffffffffffffffffffffffffffffffff021916908373ffffffffffffffffffffffffffffffffffffffff160217905550620008816040805190810160405280600b81526020017f6574685f72696e6b65627900000000000000000000000000000000000000000081525062000a52640100000000026401000000009004565b6001905062000a4f565b6000620008bb736f485c8bf6fc43ea212e93bbf8ce046c7f1cb475620004cd640100000000026401000000009004565b11156200092057736f485c8bf6fc43ea212e93bbf8ce046c7f1cb4756000806101000a81548173ffffffffffffffffffffffffffffffffffffffff021916908373ffffffffffffffffffffffffffffffffffffffff1602179055506001905062000a4f565b6000620009507320e12a1f859b3feae5fb2a0a32c18f5a65555bbf620004cd640100000000026401000000009004565b1115620009b5577320e12a1f859b3feae5fb2a0a32c18f5a65555bbf6000806101000a81548173ffffffffffffffffffffffffffffffffffffffff021916908373ffffffffffffffffffffffffffffffffffffffff1602179055506001905062000a4f565b6000620009e57351efaf4c8b3c9afbd5ab9f4bbc82784ab6ef8faa620004cd640100000000026401000000009004565b111562000a4a577351efaf4c8b3c9afbd5ab9f4bbc82784ab6ef8faa6000806101000a81548173ffffffffffffffffffffffffffffffffffffffff021916908373ffffffffffffffffffffffffffffffffffffffff1602179055506001905062000a4f565b600090505b90565b806002908051906020019062000a6a92919062000a6e565b5050565b828054600181600116156101000203166002900490600052602060002090601f016020900481019282601f1062000ab157805160ff191683800117855562000ae2565b8280016001018555821562000ae2579182015b8281111562000ae157825182559160200191906001019062000ac4565b5b50905062000af1919062000af5565b5090565b62000b1a91905b8082111562000b1657600081600090555060010162000afc565b5090565b90565b611c438062000b2d6000396000f300608060405260043610610099576000357c0100000000000000000000000000000000000000000000000000000000900463ffffffff16806312065fe0146101145780631c2ec9591461013f57806327dc297e1461014957806338bbfa50146101c0578063715018a61461027d5780638da5cb5b14610294578063cc3eacbb146102eb578063ced72f8714610316578063f2fde38b14610341575b3480156100a557600080fd5b506040517f08c379a00000000000000000000000000000000000000000000000000000000081526004018080602001828103825260088152602001807f726576657274656400000000000000000000000000000000000000000000000081525060200191505060405180910390fd5b34801561012057600080fd5b50610129610384565b6040518082815260200191505060405180910390f35b6101476103a3565b005b34801561015557600080fd5b506101be6004803603810190808035600019169060200190929190803590602001908201803590602001908080601f016020809104026020016040519081016040528093929190818152602001838380828437820191505050505050919291929050505061054b565b005b3480156101cc57600080fd5b5061027b6004803603810190808035600019169060200190929190803590602001908201803590602001908080601f0160208091040260200160405190810160405280939291908181526020018383808284378201915050505050509192919290803590602001908201803590602001908080601f016020809104026020016040519081016040528093929190818152602001838380828437820191505050505050919291929050505061058e565b005b34801561028957600080fd5b506102926106ff565b005b3480156102a057600080fd5b506102a9610804565b604051808273ffffffffffffffffffffffffffffffffffffffff1673ffffffffffffffffffffffffffffffffffffffff16815260200191505060405180910390f35b3480156102f757600080fd5b5061030061082a565b6040518082815260200191505060405180910390f35b34801561032257600080fd5b5061032b61086f565b6040518082815260200191505060405180910390f35b34801561034d57600080fd5b50610382600480360381019080803573ffffffffffffffffffffffffffffffffffffffff169060200190929190505050610879565b005b60003073ffffffffffffffffffffffffffffffffffffffff1631905090565b60006006546103e66040805190810160405280600381526020017f55524c00000000000000000000000000000000000000000000000000000000008152506108e1565b0190503481101515610486576040517f08c379a00000000000000000000000000000000000000000000000000000000081526004018080602001828103825260258152602001807f4e6f7420656e6f7567682067617320746f20657865637574652074686973206d81526020017f6574686f6400000000000000000000000000000000000000000000000000000081525060400191505060405180910390fd5b6105476040805190810160405280600381526020017f55524c0000000000000000000000000000000000000000000000000000000000815250608060405190810160405280604181526020017f6a736f6e2868747470733a2f2f6170692e636f696e626173652e636f6d2f763281526020017f2f7072696365732f4554482d5553442f73706f74292e646174612e616d6f756e81526020017f7400000000000000000000000000000000000000000000000000000000000000815250610cb1565b5050565b61058a828260006040519080825280601f01601f1916602001820160405280156105845781602001602082028038833980820191505090505b5061058e565b5050565b610596611253565b73ffffffffffffffffffffffffffffffffffffffff163373ffffffffffffffffffffffffffffffffffffffff1614151561065e576040517f08c379a00000000000000000000000000000000000000000000000000000000081526004018080602001828103825260248152602001807f546869732061646472657373206973206e6f7420612076616c696420636f696e81526020017f626173650000000000000000000000000000000000000000000000000000000081525060400191505060405180910390fd5b7f71c6499d1634003bb62f4bb5c3a294ee7a3180f3f2c3ad77bbf1a077fa39001e826040518080602001828103825283818151815260200191508051906020019080838360005b838110156106c05780820151818401526020810190506106a5565b50505050905090810190601f1680156106ed5780820380516001836020036101000a031916815260200191505b509250505060405180910390a1505050565b600560009054906101000a900473ffffffffffffffffffffffffffffffffffffffff1673ffffffffffffffffffffffffffffffffffffffff163373ffffffffffffffffffffffffffffffffffffffff1614151561075b57600080fd5b600560009054906101000a900473ffffffffffffffffffffffffffffffffffffffff1673ffffffffffffffffffffffffffffffffffffffff167ff8df31144d9c2f0f6b59d69b8b98abd5459d07f2742c4df920b25aae33c6482060405160405180910390a26000600560006101000a81548173ffffffffffffffffffffffffffffffffffffffff021916908373ffffffffffffffffffffffffffffffffffffffff160217905550565b600560009054906101000a900473ffffffffffffffffffffffffffffffffffffffff1681565b600061086a6040805190810160405280600381526020017f55524c00000000000000000000000000000000000000000000000000000000008152506108e1565b905090565b6000600654905090565b600560009054906101000a900473ffffffffffffffffffffffffffffffffffffffff1673ffffffffffffffffffffffffffffffffffffffff163373ffffffffffffffffffffffffffffffffffffffff161415156108d557600080fd5b6108de816115b1565b50565b6000806000809054906101000a900473ffffffffffffffffffffffffffffffffffffffff1673ffffffffffffffffffffffffffffffffffffffff1614806109515750600061094f6000809054906101000a900473ffffffffffffffffffffffffffffffffffffffff166116ad565b145b156109625761096060006116b8565b505b6000809054906101000a900473ffffffffffffffffffffffffffffffffffffffff1673ffffffffffffffffffffffffffffffffffffffff166338cc48316040518163ffffffff167c0100000000000000000000000000000000000000000000000000000000028152600401602060405180830381600087803b1580156109e757600080fd5b505af11580156109fb573d6000803e3d6000fd5b505050506040513d6020811015610a1157600080fd5b810190808051906020019092919050505073ffffffffffffffffffffffffffffffffffffffff16600160009054906101000a900473ffffffffffffffffffffffffffffffffffffffff1673ffffffffffffffffffffffffffffffffffffffff16141515610b79576000809054906101000a900473ffffffffffffffffffffffffffffffffffffffff1673ffffffffffffffffffffffffffffffffffffffff166338cc48316040518163ffffffff167c0100000000000000000000000000000000000000000000000000000000028152600401602060405180830381600087803b158015610afd57600080fd5b505af1158015610b11573d6000803e3d6000fd5b505050506040513d6020811015610b2757600080fd5b8101908080519060200190929190505050600160006101000a81548173ffffffffffffffffffffffffffffffffffffffff021916908373ffffffffffffffffffffffffffffffffffffffff1602179055505b600160009054906101000a900473ffffffffffffffffffffffffffffffffffffffff1673ffffffffffffffffffffffffffffffffffffffff1663524f3889836040518263ffffffff167c01000000000000000000000000000000000000000000000000000000000281526004018080602001828103825283818151815260200191508051906020019080838360005b83811015610c23578082015181840152602081019050610c08565b50505050905090810190601f168015610c505780820380516001836020036101000a031916815260200191505b5092505050602060405180830381600087803b158015610c6f57600080fd5b505af1158015610c83573d6000803e3d6000fd5b505050506040513d6020811015610c9957600080fd5b81019080805190602001909291905050509050919050565b60008060008060009054906101000a900473ffffffffffffffffffffffffffffffffffffffff1673ffffffffffffffffffffffffffffffffffffffff161480610d2357506000610d216000809054906101000a900473ffffffffffffffffffffffffffffffffffffffff166116ad565b145b15610d3457610d3260006116b8565b505b6000809054906101000a900473ffffffffffffffffffffffffffffffffffffffff1673ffffffffffffffffffffffffffffffffffffffff166338cc48316040518163ffffffff167c0100000000000000000000000000000000000000000000000000000000028152600401602060405180830381600087803b158015610db957600080fd5b505af1158015610dcd573d6000803e3d6000fd5b505050506040513d6020811015610de357600080fd5b810190808051906020019092919050505073ffffffffffffffffffffffffffffffffffffffff16600160009054906101000a900473ffffffffffffffffffffffffffffffffffffffff1673ffffffffffffffffffffffffffffffffffffffff16141515610f4b576000809054906101000a900473ffffffffffffffffffffffffffffffffffffffff1673ffffffffffffffffffffffffffffffffffffffff166338cc48316040518163ffffffff167c0100000000000000000000000000000000000000000000000000000000028152600401602060405180830381600087803b158015610ecf57600080fd5b505af1158015610ee3573d6000803e3d6000fd5b505050506040513d6020811015610ef957600080fd5b8101908080519060200190929190505050600160006101000a81548173ffffffffffffffffffffffffffffffffffffffff021916908373ffffffffffffffffffffffffffffffffffffffff1602179055505b600160009054906101000a900473ffffffffffffffffffffffffffffffffffffffff1673ffffffffffffffffffffffffffffffffffffffff1663524f3889856040518263ffffffff167c01000000000000000000000000000000000000000000000000000000000281526004018080602001828103825283818151815260200191508051906020019080838360005b83811015610ff5578082015181840152602081019050610fda565b50505050905090810190601f1680156110225780820380516001836020036101000a031916815260200191505b5092505050602060405180830381600087803b15801561104157600080fd5b505af1158015611055573d6000803e3d6000fd5b505050506040513d602081101561106b57600080fd5b8101908080519060200190929190505050905062030d403a02670de0b6b3a7640000018111156110a1576000600102915061124c565b600160009054906101000a900473ffffffffffffffffffffffffffffffffffffffff1673ffffffffffffffffffffffffffffffffffffffff1663adf59f9982600087876040518563ffffffff167c0100000000000000000000000000000000000000000000000000000000028152600401808481526020018060200180602001838103835285818151815260200191508051906020019080838360005b8381101561115957808201518184015260208101905061113e565b50505050905090810190601f1680156111865780820380516001836020036101000a031916815260200191505b50838103825284818151815260200191508051906020019080838360005b838110156111bf5780820151818401526020810190506111a4565b50505050905090810190601f1680156111ec5780820380516001836020036101000a031916815260200191505b50955050505050506020604051808303818588803b15801561120d57600080fd5b505af1158015611221573d6000803e3d6000fd5b50505050506040513d602081101561123857600080fd5b810190808051906020019092919050505091505b5092915050565b6000806000809054906101000a900473ffffffffffffffffffffffffffffffffffffffff1673ffffffffffffffffffffffffffffffffffffffff1614806112c3575060006112c16000809054906101000a900473ffffffffffffffffffffffffffffffffffffffff166116ad565b145b156112d4576112d260006116b8565b505b6000809054906101000a900473ffffffffffffffffffffffffffffffffffffffff1673ffffffffffffffffffffffffffffffffffffffff166338cc48316040518163ffffffff167c0100000000000000000000000000000000000000000000000000000000028152600401602060405180830381600087803b15801561135957600080fd5b505af115801561136d573d6000803e3d6000fd5b505050506040513d602081101561138357600080fd5b810190808051906020019092919050505073ffffffffffffffffffffffffffffffffffffffff16600160009054906101000a900473ffffffffffffffffffffffffffffffffffffffff1673ffffffffffffffffffffffffffffffffffffffff161415156114eb576000809054906101000a900473ffffffffffffffffffffffffffffffffffffffff1673ffffffffffffffffffffffffffffffffffffffff166338cc48316040518163ffffffff167c0100000000000000000000000000000000000000000000000000000000028152600401602060405180830381600087803b15801561146f57600080fd5b505af1158015611483573d6000803e3d6000fd5b505050506040513d602081101561149957600080fd5b8101908080519060200190929190505050600160006101000a81548173ffffffffffffffffffffffffffffffffffffffff021916908373ffffffffffffffffffffffffffffffffffffffff1602179055505b600160009054906101000a900473ffffffffffffffffffffffffffffffffffffffff1673ffffffffffffffffffffffffffffffffffffffff1663c281d19e6040518163ffffffff167c0100000000000000000000000000000000000000000000000000000000028152600401602060405180830381600087803b15801561157157600080fd5b505af1158015611585573d6000803e3d6000fd5b505050506040513d602081101561159b57600080fd5b8101908080519060200190929190505050905090565b600073ffffffffffffffffffffffffffffffffffffffff168173ffffffffffffffffffffffffffffffffffffffff16141515156115ed57600080fd5b8073ffffffffffffffffffffffffffffffffffffffff16600560009054906101000a900473ffffffffffffffffffffffffffffffffffffffff1673ffffffffffffffffffffffffffffffffffffffff167f8be0079c531659141344cd1fd0a4f28419497f9722a3daafe3b4186f6b6457e060405160405180910390a380600560006101000a81548173ffffffffffffffffffffffffffffffffffffffff021916908373ffffffffffffffffffffffffffffffffffffffff16021790555050565b6000813b9050919050565b60006116c26116c9565b9050919050565b6000806116e9731d3b2638a7cc9f2cb3d298a3da7a90b67e5506ed6116ad565b111561178a57731d3b2638a7cc9f2cb3d298a3da7a90b67e5506ed6000806101000a81548173ffffffffffffffffffffffffffffffffffffffff021916908373ffffffffffffffffffffffffffffffffffffffff1602179055506117816040805190810160405280600b81526020017f6574685f6d61696e6e6574000000000000000000000000000000000000000000815250611b58565b60019050611b55565b60006117a973c03a2615d5efaf5f49f60b7bb6583eaec212fdf16116ad565b111561184a5773c03a2615d5efaf5f49f60b7bb6583eaec212fdf16000806101000a81548173ffffffffffffffffffffffffffffffffffffffff021916908373ffffffffffffffffffffffffffffffffffffffff1602179055506118416040805190810160405280600c81526020017f6574685f726f707374656e330000000000000000000000000000000000000000815250611b58565b60019050611b55565b600061186973b7a07bcf2ba2f2703b24c0691b5278999c59ac7e6116ad565b111561190a5773b7a07bcf2ba2f2703b24c0691b5278999c59ac7e6000806101000a81548173ffffffffffffffffffffffffffffffffffffffff021916908373ffffffffffffffffffffffffffffffffffffffff1602179055506119016040805190810160405280600981526020017f6574685f6b6f76616e0000000000000000000000000000000000000000000000815250611b58565b60019050611b55565b600061192973146500cfd35b22e4a392fe0adc06de1a1368ed486116ad565b11156119ca5773146500cfd35b22e4a392fe0adc06de1a1368ed486000806101000a81548173ffffffffffffffffffffffffffffffffffffffff021916908373ffffffffffffffffffffffffffffffffffffffff1602179055506119c16040805190810160405280600b81526020017f6574685f72696e6b656279000000000000000000000000000000000000000000815250611b58565b60019050611b55565b60006119e9736f485c8bf6fc43ea212e93bbf8ce046c7f1cb4756116ad565b1115611a4c57736f485c8bf6fc43ea212e93bbf8ce046c7f1cb4756000806101000a81548173ffffffffffffffffffffffffffffffffffffffff021916908373ffffffffffffffffffffffffffffffffffffffff16021790555060019050611b55565b6000611a6b7320e12a1f859b3feae5fb2a0a32c18f5a65555bbf6116ad565b1115611ace577320e12a1f859b3feae5fb2a0a32c18f5a65555bbf6000806101000a81548173ffffffffffffffffffffffffffffffffffffffff021916908373ffffffffffffffffffffffffffffffffffffffff16021790555060019050611b55565b6000611aed7351efaf4c8b3c9afbd5ab9f4bbc82784ab6ef8faa6116ad565b1115611b50577351efaf4c8b3c9afbd5ab9f4bbc82784ab6ef8faa6000806101000a81548173ffffffffffffffffffffffffffffffffffffffff021916908373ffffffffffffffffffffffffffffffffffffffff16021790555060019050611b55565b600090505b90565b8060029080519060200190611b6e929190611b72565b5050565b828054600181600116156101000203166002900490600052602060002090601f016020900481019282601f10611bb357805160ff1916838001178555611be1565b82800160010185558215611be1579182015b82811115611be0578251825591602001919060010190611bc5565b5b509050611bee9190611bf2565b5090565b611c1491905b80821115611c10576000816000905550600101611bf8565b5090565b905600a165627a7a723058203b16e79bb828538c00d9b0dccd9ec7c5afbb9887fbf5993783070f3b7b4a0e4b0029",
  "source": "pragma solidity ^0.4.24;\r\n\r\nimport \"installed_contracts/oraclize-api/contracts/usingOraclize.sol\";\r\nimport \"../../node_modules/zeppelin-solidity/contracts/ownership/Ownable.sol\";\r\n\r\ncontract PocDap is usingOraclize, Ownable {\r\n    \r\n    uint articleRegisryFee = 0.00001 ether;  \r\n        \r\n    event CallbackReceived(string result);\r\n\r\n    constructor() public {\r\n        OAR = OraclizeAddrResolverI(0x6f485C8BF6fc43eA212E93BBF8ce046C7f1cb475);\r\n\r\n        oraclize_setProof(proofType_TLSNotary | proofStorage_IPFS);\r\n    }\r\n\r\n    // function setArticleRegisryFee(uint _fee) external onlyOwner {\r\n    //     articleRegisryFee = _fee;\r\n    // }\r\n\r\n    // Fallback function\r\n    function() public{\r\n        revert(\"reverted\");\r\n    }\r\n\r\n    function __callback(bytes32 id, string result, bytes proof) public {\r\n        require(msg.sender == oraclize_cbAddress(), \"This address is not a valid coinbase\");\r\n\r\n        emit CallbackReceived(result);        \r\n    }\r\n\r\n    function refreshEthPrice() public payable {\r\n        uint estimatedTransactionPrice = oraclize_getPrice(\"URL\") + articleRegisryFee;\r\n        require(estimatedTransactionPrice < msg.value, \"Not enough gas to execute this method\");\r\n        //address(this).balance + articleRegisryFee;\r\n        oraclize_query(\"URL\", \"json(https://api.coinbase.com/v2/prices/ETH-USD/spot).data.amount\");\r\n    }\r\n \r\n    function getOraclizeFee() public returns (uint _fee) {\r\n        return oraclize_getPrice(\"URL\");\r\n    }\r\n\r\n    function getFee() public returns (uint _fee) {\r\n        return articleRegisryFee;\r\n    }\r\n\r\n    function getBalance() public returns (uint _balance) {\r\n        return address(this).balance;\r\n    }\r\n\r\n}",
  "sourcePath": "C:\\Users\\Helfstein\\Desktop\\TCC\\pocdapp\\src\\contracts\\PocDap.sol",
  "compiler": {
    "name": "solc",
    "version": "0.4.24+commit.e67f0147.Emscripten.clang"
  },
  "schemaVersion": "2.0.1",
  "updatedAt": "2018-08-27T02:42:41.940Z"
}