{
  "contractName": "PocDap",
  "abi": [
    {
      "constant": false,
      "inputs": [],
      "name": "renounceOwnership",
      "outputs": [],
      "payable": false,
      "stateMutability": "nonpayable",
      "type": "function"
    },
    {
      "constant": true,
      "inputs": [],
      "name": "owner",
      "outputs": [
        {
          "name": "",
          "type": "address"
        }
      ],
      "payable": false,
      "stateMutability": "view",
      "type": "function"
    },
    {
      "constant": false,
      "inputs": [
        {
          "name": "_newOwner",
          "type": "address"
        }
      ],
      "name": "transferOwnership",
      "outputs": [],
      "payable": false,
      "stateMutability": "nonpayable",
      "type": "function"
    },
    {
      "inputs": [
        {
          "name": "oraclizeAddress",
          "type": "address"
        }
      ],
      "payable": false,
      "stateMutability": "nonpayable",
      "type": "constructor"
    },
    {
      "payable": false,
      "stateMutability": "nonpayable",
      "type": "fallback"
    },
    {
      "anonymous": false,
      "inputs": [
        {
          "indexed": false,
          "name": "result",
          "type": "string"
        }
      ],
      "name": "CallbackReceived",
      "type": "event"
    },
    {
      "anonymous": false,
      "inputs": [
        {
          "indexed": true,
          "name": "previousOwner",
          "type": "address"
        }
      ],
      "name": "OwnershipRenounced",
      "type": "event"
    },
    {
      "anonymous": false,
      "inputs": [
        {
          "indexed": true,
          "name": "previousOwner",
          "type": "address"
        },
        {
          "indexed": true,
          "name": "newOwner",
          "type": "address"
        }
      ],
      "name": "OwnershipTransferred",
      "type": "event"
    },
    {
      "constant": false,
      "inputs": [
        {
          "name": "_fee",
          "type": "uint256"
        }
      ],
      "name": "setArticleRegisryFee",
      "outputs": [],
      "payable": false,
      "stateMutability": "nonpayable",
      "type": "function"
    },
    {
      "constant": false,
      "inputs": [
        {
          "name": "_url",
          "type": "string"
        }
      ],
      "name": "setUrlOraclize",
      "outputs": [],
      "payable": false,
      "stateMutability": "nonpayable",
      "type": "function"
    },
    {
      "constant": false,
      "inputs": [
        {
          "name": "myid",
          "type": "bytes32"
        },
        {
          "name": "result",
          "type": "string"
        }
      ],
      "name": "__callback",
      "outputs": [],
      "payable": false,
      "stateMutability": "nonpayable",
      "type": "function"
    },
    {
      "constant": false,
      "inputs": [
        {
          "name": "id",
          "type": "bytes32"
        },
        {
          "name": "result",
          "type": "string"
        },
        {
          "name": "proof",
          "type": "bytes"
        }
      ],
      "name": "__callback",
      "outputs": [],
      "payable": false,
      "stateMutability": "nonpayable",
      "type": "function"
    },
    {
      "constant": false,
      "inputs": [],
      "name": "refreshEthPrice",
      "outputs": [],
      "payable": true,
      "stateMutability": "payable",
      "type": "function"
    }
  ],
  "bytecode": "0x608060405266038d7ea4c68000600655608060405190810160405280604181526020017f6a736f6e2868747470733a2f2f6170692e636f696e626173652e636f6d2f763281526020017f2f7072696365732f4554482d5553442f73706f74292e646174612e616d6f756e81526020017f740000000000000000000000000000000000000000000000000000000000000081525060079080519060200190620000a992919062000b1a565b50348015620000b757600080fd5b50604051602080620028fa8339810180604052810190808051906020019092919050505033600560006101000a81548173ffffffffffffffffffffffffffffffffffffffff021916908373ffffffffffffffffffffffffffffffffffffffff160217905550806000806101000a81548173ffffffffffffffffffffffffffffffffffffffff021916908373ffffffffffffffffffffffffffffffffffffffff160217905550620001be60017f01000000000000000000000000000000000000000000000000000000000000000260107f01000000000000000000000000000000000000000000000000000000000000000217620001c5640100000000026401000000009004565b5062000bc9565b60008060009054906101000a900473ffffffffffffffffffffffffffffffffffffffff1673ffffffffffffffffffffffffffffffffffffffff1614806200024657506000620002446000809054906101000a900473ffffffffffffffffffffffffffffffffffffffff1662000579640100000000026401000000009004565b145b15620002695762000267600062000584640100000000026401000000009004565b505b6000809054906101000a900473ffffffffffffffffffffffffffffffffffffffff1673ffffffffffffffffffffffffffffffffffffffff166338cc48316040518163ffffffff167c0100000000000000000000000000000000000000000000000000000000028152600401602060405180830381600087803b158015620002ef57600080fd5b505af115801562000304573d6000803e3d6000fd5b505050506040513d60208110156200031b57600080fd5b810190808051906020019092919050505073ffffffffffffffffffffffffffffffffffffffff16600160009054906101000a900473ffffffffffffffffffffffffffffffffffffffff1673ffffffffffffffffffffffffffffffffffffffff1614151562000487576000809054906101000a900473ffffffffffffffffffffffffffffffffffffffff1673ffffffffffffffffffffffffffffffffffffffff166338cc48316040518163ffffffff167c0100000000000000000000000000000000000000000000000000000000028152600401602060405180830381600087803b1580156200040957600080fd5b505af11580156200041e573d6000803e3d6000fd5b505050506040513d60208110156200043557600080fd5b8101908080519060200190929190505050600160006101000a81548173ffffffffffffffffffffffffffffffffffffffff021916908373ffffffffffffffffffffffffffffffffffffffff1602179055505b600160009054906101000a900473ffffffffffffffffffffffffffffffffffffffff1673ffffffffffffffffffffffffffffffffffffffff1663688dcfd7826040518263ffffffff167c010000000000000000000000000000000000000000000000000000000002815260040180827effffffffffffffffffffffffffffffffffffffffffffffffffffffffffffff19167effffffffffffffffffffffffffffffffffffffffffffffffffffffffffffff19168152602001915050600060405180830381600087803b1580156200055d57600080fd5b505af115801562000572573d6000803e3d6000fd5b5050505050565b6000813b9050919050565b60006200059f620005a6640100000000026401000000009004565b9050919050565b600080620005d7731d3b2638a7cc9f2cb3d298a3da7a90b67e5506ed62000579640100000000026401000000009004565b11156200068b57731d3b2638a7cc9f2cb3d298a3da7a90b67e5506ed6000806101000a81548173ffffffffffffffffffffffffffffffffffffffff021916908373ffffffffffffffffffffffffffffffffffffffff160217905550620006816040805190810160405280600b81526020017f6574685f6d61696e6e657400000000000000000000000000000000000000000081525062000afe640100000000026401000000009004565b6001905062000afb565b6000620006bb73c03a2615d5efaf5f49f60b7bb6583eaec212fdf162000579640100000000026401000000009004565b11156200076f5773c03a2615d5efaf5f49f60b7bb6583eaec212fdf16000806101000a81548173ffffffffffffffffffffffffffffffffffffffff021916908373ffffffffffffffffffffffffffffffffffffffff160217905550620007656040805190810160405280600c81526020017f6574685f726f707374656e33000000000000000000000000000000000000000081525062000afe640100000000026401000000009004565b6001905062000afb565b60006200079f73b7a07bcf2ba2f2703b24c0691b5278999c59ac7e62000579640100000000026401000000009004565b1115620008535773b7a07bcf2ba2f2703b24c0691b5278999c59ac7e6000806101000a81548173ffffffffffffffffffffffffffffffffffffffff021916908373ffffffffffffffffffffffffffffffffffffffff160217905550620008496040805190810160405280600981526020017f6574685f6b6f76616e000000000000000000000000000000000000000000000081525062000afe640100000000026401000000009004565b6001905062000afb565b60006200088373146500cfd35b22e4a392fe0adc06de1a1368ed4862000579640100000000026401000000009004565b1115620009375773146500cfd35b22e4a392fe0adc06de1a1368ed486000806101000a81548173ffffffffffffffffffffffffffffffffffffffff021916908373ffffffffffffffffffffffffffffffffffffffff1602179055506200092d6040805190810160405280600b81526020017f6574685f72696e6b65627900000000000000000000000000000000000000000081525062000afe640100000000026401000000009004565b6001905062000afb565b600062000967736f485c8bf6fc43ea212e93bbf8ce046c7f1cb47562000579640100000000026401000000009004565b1115620009cc57736f485c8bf6fc43ea212e93bbf8ce046c7f1cb4756000806101000a81548173ffffffffffffffffffffffffffffffffffffffff021916908373ffffffffffffffffffffffffffffffffffffffff1602179055506001905062000afb565b6000620009fc7320e12a1f859b3feae5fb2a0a32c18f5a65555bbf62000579640100000000026401000000009004565b111562000a61577320e12a1f859b3feae5fb2a0a32c18f5a65555bbf6000806101000a81548173ffffffffffffffffffffffffffffffffffffffff021916908373ffffffffffffffffffffffffffffffffffffffff1602179055506001905062000afb565b600062000a917351efaf4c8b3c9afbd5ab9f4bbc82784ab6ef8faa62000579640100000000026401000000009004565b111562000af6577351efaf4c8b3c9afbd5ab9f4bbc82784ab6ef8faa6000806101000a81548173ffffffffffffffffffffffffffffffffffffffff021916908373ffffffffffffffffffffffffffffffffffffffff1602179055506001905062000afb565b600090505b90565b806002908051906020019062000b1692919062000b1a565b5050565b828054600181600116156101000203166002900490600052602060002090601f016020900481019282601f1062000b5d57805160ff191683800117855562000b8e565b8280016001018555821562000b8e579182015b8281111562000b8d57825182559160200191906001019062000b70565b5b50905062000b9d919062000ba1565b5090565b62000bc691905b8082111562000bc257600081600090555060010162000ba8565b5090565b90565b611d218062000bd96000396000f30060806040526004361061008e576000357c0100000000000000000000000000000000000000000000000000000000900463ffffffff1680631c2ec9591461010957806327dc297e1461011357806338bbfa501461018a57806350aef54c14610247578063715018a6146102745780638da5cb5b1461028b578063dafb2474146102e2578063f2fde38b1461031d575b34801561009a57600080fd5b506040517f08c379a00000000000000000000000000000000000000000000000000000000081526004018080602001828103825260088152602001807f726576657274656400000000000000000000000000000000000000000000000081525060200191505060405180910390fd5b610111610360565b005b34801561011f57600080fd5b506101886004803603810190808035600019169060200190929190803590602001908201803590602001908080601f0160208091040260200160405190810160405280939291908181526020018383808284378201915050505050509192919290505050610520565b005b34801561019657600080fd5b506102456004803603810190808035600019169060200190929190803590602001908201803590602001908080601f0160208091040260200160405190810160405280939291908181526020018383808284378201915050505050509192919290803590602001908201803590602001908080601f0160208091040260200160405190810160405280939291908181526020018383808284378201915050505050509192919290505050610563565b005b34801561025357600080fd5b50610272600480360381019080803590602001909291905050506106d4565b005b34801561028057600080fd5b5061028961073a565b005b34801561029757600080fd5b506102a061083f565b604051808273ffffffffffffffffffffffffffffffffffffffff1673ffffffffffffffffffffffffffffffffffffffff16815260200191505060405180910390f35b3480156102ee57600080fd5b5061031b600480360381019080803590602001908201803590602001919091929391929390505050610865565b005b34801561032957600080fd5b5061035e600480360381019080803573ffffffffffffffffffffffffffffffffffffffff1690602001909291905050506108d7565b005b60006006546103a36040805190810160405280600381526020017f55524c000000000000000000000000000000000000000000000000000000000081525061093f565b0190503481101515610443576040517f08c379a00000000000000000000000000000000000000000000000000000000081526004018080602001828103825260258152602001807f4e6f7420656e6f7567682067617320746f20657865637574652074686973206d81526020017f6574686f6400000000000000000000000000000000000000000000000000000081525060400191505060405180910390fd5b61051c6040805190810160405280600381526020017f55524c000000000000000000000000000000000000000000000000000000000081525060078054600181600116156101000203166002900480601f0160208091040260200160405190810160405280929190818152602001828054600181600116156101000203166002900480156105125780601f106104e757610100808354040283529160200191610512565b820191906000526020600020905b8154815290600101906020018083116104f557829003601f168201915b5050505050610d0f565b5050565b61055f828260006040519080825280601f01601f1916602001820160405280156105595781602001602082028038833980820191505090505b50610563565b5050565b61056b6112b1565b73ffffffffffffffffffffffffffffffffffffffff163373ffffffffffffffffffffffffffffffffffffffff16141515610633576040517f08c379a00000000000000000000000000000000000000000000000000000000081526004018080602001828103825260248152602001807f546869732061646472657373206973206e6f7420612076616c696420636f696e81526020017f626173650000000000000000000000000000000000000000000000000000000081525060400191505060405180910390fd5b7f71c6499d1634003bb62f4bb5c3a294ee7a3180f3f2c3ad77bbf1a077fa39001e826040518080602001828103825283818151815260200191508051906020019080838360005b8381101561069557808201518184015260208101905061067a565b50505050905090810190601f1680156106c25780820380516001836020036101000a031916815260200191505b509250505060405180910390a1505050565b600560009054906101000a900473ffffffffffffffffffffffffffffffffffffffff1673ffffffffffffffffffffffffffffffffffffffff163373ffffffffffffffffffffffffffffffffffffffff1614151561073057600080fd5b8060068190555050565b600560009054906101000a900473ffffffffffffffffffffffffffffffffffffffff1673ffffffffffffffffffffffffffffffffffffffff163373ffffffffffffffffffffffffffffffffffffffff1614151561079657600080fd5b600560009054906101000a900473ffffffffffffffffffffffffffffffffffffffff1673ffffffffffffffffffffffffffffffffffffffff167ff8df31144d9c2f0f6b59d69b8b98abd5459d07f2742c4df920b25aae33c6482060405160405180910390a26000600560006101000a81548173ffffffffffffffffffffffffffffffffffffffff021916908373ffffffffffffffffffffffffffffffffffffffff160217905550565b600560009054906101000a900473ffffffffffffffffffffffffffffffffffffffff1681565b600560009054906101000a900473ffffffffffffffffffffffffffffffffffffffff1673ffffffffffffffffffffffffffffffffffffffff163373ffffffffffffffffffffffffffffffffffffffff161415156108c157600080fd5b8181600791906108d2929190611bd0565b505050565b600560009054906101000a900473ffffffffffffffffffffffffffffffffffffffff1673ffffffffffffffffffffffffffffffffffffffff163373ffffffffffffffffffffffffffffffffffffffff1614151561093357600080fd5b61093c8161160f565b50565b6000806000809054906101000a900473ffffffffffffffffffffffffffffffffffffffff1673ffffffffffffffffffffffffffffffffffffffff1614806109af575060006109ad6000809054906101000a900473ffffffffffffffffffffffffffffffffffffffff1661170b565b145b156109c0576109be6000611716565b505b6000809054906101000a900473ffffffffffffffffffffffffffffffffffffffff1673ffffffffffffffffffffffffffffffffffffffff166338cc48316040518163ffffffff167c0100000000000000000000000000000000000000000000000000000000028152600401602060405180830381600087803b158015610a4557600080fd5b505af1158015610a59573d6000803e3d6000fd5b505050506040513d6020811015610a6f57600080fd5b810190808051906020019092919050505073ffffffffffffffffffffffffffffffffffffffff16600160009054906101000a900473ffffffffffffffffffffffffffffffffffffffff1673ffffffffffffffffffffffffffffffffffffffff16141515610bd7576000809054906101000a900473ffffffffffffffffffffffffffffffffffffffff1673ffffffffffffffffffffffffffffffffffffffff166338cc48316040518163ffffffff167c0100000000000000000000000000000000000000000000000000000000028152600401602060405180830381600087803b158015610b5b57600080fd5b505af1158015610b6f573d6000803e3d6000fd5b505050506040513d6020811015610b8557600080fd5b8101908080519060200190929190505050600160006101000a81548173ffffffffffffffffffffffffffffffffffffffff021916908373ffffffffffffffffffffffffffffffffffffffff1602179055505b600160009054906101000a900473ffffffffffffffffffffffffffffffffffffffff1673ffffffffffffffffffffffffffffffffffffffff1663524f3889836040518263ffffffff167c01000000000000000000000000000000000000000000000000000000000281526004018080602001828103825283818151815260200191508051906020019080838360005b83811015610c81578082015181840152602081019050610c66565b50505050905090810190601f168015610cae5780820380516001836020036101000a031916815260200191505b5092505050602060405180830381600087803b158015610ccd57600080fd5b505af1158015610ce1573d6000803e3d6000fd5b505050506040513d6020811015610cf757600080fd5b81019080805190602001909291905050509050919050565b60008060008060009054906101000a900473ffffffffffffffffffffffffffffffffffffffff1673ffffffffffffffffffffffffffffffffffffffff161480610d8157506000610d7f6000809054906101000a900473ffffffffffffffffffffffffffffffffffffffff1661170b565b145b15610d9257610d906000611716565b505b6000809054906101000a900473ffffffffffffffffffffffffffffffffffffffff1673ffffffffffffffffffffffffffffffffffffffff166338cc48316040518163ffffffff167c0100000000000000000000000000000000000000000000000000000000028152600401602060405180830381600087803b158015610e1757600080fd5b505af1158015610e2b573d6000803e3d6000fd5b505050506040513d6020811015610e4157600080fd5b810190808051906020019092919050505073ffffffffffffffffffffffffffffffffffffffff16600160009054906101000a900473ffffffffffffffffffffffffffffffffffffffff1673ffffffffffffffffffffffffffffffffffffffff16141515610fa9576000809054906101000a900473ffffffffffffffffffffffffffffffffffffffff1673ffffffffffffffffffffffffffffffffffffffff166338cc48316040518163ffffffff167c0100000000000000000000000000000000000000000000000000000000028152600401602060405180830381600087803b158015610f2d57600080fd5b505af1158015610f41573d6000803e3d6000fd5b505050506040513d6020811015610f5757600080fd5b8101908080519060200190929190505050600160006101000a81548173ffffffffffffffffffffffffffffffffffffffff021916908373ffffffffffffffffffffffffffffffffffffffff1602179055505b600160009054906101000a900473ffffffffffffffffffffffffffffffffffffffff1673ffffffffffffffffffffffffffffffffffffffff1663524f3889856040518263ffffffff167c01000000000000000000000000000000000000000000000000000000000281526004018080602001828103825283818151815260200191508051906020019080838360005b83811015611053578082015181840152602081019050611038565b50505050905090810190601f1680156110805780820380516001836020036101000a031916815260200191505b5092505050602060405180830381600087803b15801561109f57600080fd5b505af11580156110b3573d6000803e3d6000fd5b505050506040513d60208110156110c957600080fd5b8101908080519060200190929190505050905062030d403a02670de0b6b3a7640000018111156110ff57600060010291506112aa565b600160009054906101000a900473ffffffffffffffffffffffffffffffffffffffff1673ffffffffffffffffffffffffffffffffffffffff1663adf59f9982600087876040518563ffffffff167c0100000000000000000000000000000000000000000000000000000000028152600401808481526020018060200180602001838103835285818151815260200191508051906020019080838360005b838110156111b757808201518184015260208101905061119c565b50505050905090810190601f1680156111e45780820380516001836020036101000a031916815260200191505b50838103825284818151815260200191508051906020019080838360005b8381101561121d578082015181840152602081019050611202565b50505050905090810190601f16801561124a5780820380516001836020036101000a031916815260200191505b50955050505050506020604051808303818588803b15801561126b57600080fd5b505af115801561127f573d6000803e3d6000fd5b50505050506040513d602081101561129657600080fd5b810190808051906020019092919050505091505b5092915050565b6000806000809054906101000a900473ffffffffffffffffffffffffffffffffffffffff1673ffffffffffffffffffffffffffffffffffffffff1614806113215750600061131f6000809054906101000a900473ffffffffffffffffffffffffffffffffffffffff1661170b565b145b15611332576113306000611716565b505b6000809054906101000a900473ffffffffffffffffffffffffffffffffffffffff1673ffffffffffffffffffffffffffffffffffffffff166338cc48316040518163ffffffff167c0100000000000000000000000000000000000000000000000000000000028152600401602060405180830381600087803b1580156113b757600080fd5b505af11580156113cb573d6000803e3d6000fd5b505050506040513d60208110156113e157600080fd5b810190808051906020019092919050505073ffffffffffffffffffffffffffffffffffffffff16600160009054906101000a900473ffffffffffffffffffffffffffffffffffffffff1673ffffffffffffffffffffffffffffffffffffffff16141515611549576000809054906101000a900473ffffffffffffffffffffffffffffffffffffffff1673ffffffffffffffffffffffffffffffffffffffff166338cc48316040518163ffffffff167c0100000000000000000000000000000000000000000000000000000000028152600401602060405180830381600087803b1580156114cd57600080fd5b505af11580156114e1573d6000803e3d6000fd5b505050506040513d60208110156114f757600080fd5b8101908080519060200190929190505050600160006101000a81548173ffffffffffffffffffffffffffffffffffffffff021916908373ffffffffffffffffffffffffffffffffffffffff1602179055505b600160009054906101000a900473ffffffffffffffffffffffffffffffffffffffff1673ffffffffffffffffffffffffffffffffffffffff1663c281d19e6040518163ffffffff167c0100000000000000000000000000000000000000000000000000000000028152600401602060405180830381600087803b1580156115cf57600080fd5b505af11580156115e3573d6000803e3d6000fd5b505050506040513d60208110156115f957600080fd5b8101908080519060200190929190505050905090565b600073ffffffffffffffffffffffffffffffffffffffff168173ffffffffffffffffffffffffffffffffffffffff161415151561164b57600080fd5b8073ffffffffffffffffffffffffffffffffffffffff16600560009054906101000a900473ffffffffffffffffffffffffffffffffffffffff1673ffffffffffffffffffffffffffffffffffffffff167f8be0079c531659141344cd1fd0a4f28419497f9722a3daafe3b4186f6b6457e060405160405180910390a380600560006101000a81548173ffffffffffffffffffffffffffffffffffffffff021916908373ffffffffffffffffffffffffffffffffffffffff16021790555050565b6000813b9050919050565b6000611720611727565b9050919050565b600080611747731d3b2638a7cc9f2cb3d298a3da7a90b67e5506ed61170b565b11156117e857731d3b2638a7cc9f2cb3d298a3da7a90b67e5506ed6000806101000a81548173ffffffffffffffffffffffffffffffffffffffff021916908373ffffffffffffffffffffffffffffffffffffffff1602179055506117df6040805190810160405280600b81526020017f6574685f6d61696e6e6574000000000000000000000000000000000000000000815250611bb6565b60019050611bb3565b600061180773c03a2615d5efaf5f49f60b7bb6583eaec212fdf161170b565b11156118a85773c03a2615d5efaf5f49f60b7bb6583eaec212fdf16000806101000a81548173ffffffffffffffffffffffffffffffffffffffff021916908373ffffffffffffffffffffffffffffffffffffffff16021790555061189f6040805190810160405280600c81526020017f6574685f726f707374656e330000000000000000000000000000000000000000815250611bb6565b60019050611bb3565b60006118c773b7a07bcf2ba2f2703b24c0691b5278999c59ac7e61170b565b11156119685773b7a07bcf2ba2f2703b24c0691b5278999c59ac7e6000806101000a81548173ffffffffffffffffffffffffffffffffffffffff021916908373ffffffffffffffffffffffffffffffffffffffff16021790555061195f6040805190810160405280600981526020017f6574685f6b6f76616e0000000000000000000000000000000000000000000000815250611bb6565b60019050611bb3565b600061198773146500cfd35b22e4a392fe0adc06de1a1368ed4861170b565b1115611a285773146500cfd35b22e4a392fe0adc06de1a1368ed486000806101000a81548173ffffffffffffffffffffffffffffffffffffffff021916908373ffffffffffffffffffffffffffffffffffffffff160217905550611a1f6040805190810160405280600b81526020017f6574685f72696e6b656279000000000000000000000000000000000000000000815250611bb6565b60019050611bb3565b6000611a47736f485c8bf6fc43ea212e93bbf8ce046c7f1cb47561170b565b1115611aaa57736f485c8bf6fc43ea212e93bbf8ce046c7f1cb4756000806101000a81548173ffffffffffffffffffffffffffffffffffffffff021916908373ffffffffffffffffffffffffffffffffffffffff16021790555060019050611bb3565b6000611ac97320e12a1f859b3feae5fb2a0a32c18f5a65555bbf61170b565b1115611b2c577320e12a1f859b3feae5fb2a0a32c18f5a65555bbf6000806101000a81548173ffffffffffffffffffffffffffffffffffffffff021916908373ffffffffffffffffffffffffffffffffffffffff16021790555060019050611bb3565b6000611b4b7351efaf4c8b3c9afbd5ab9f4bbc82784ab6ef8faa61170b565b1115611bae577351efaf4c8b3c9afbd5ab9f4bbc82784ab6ef8faa6000806101000a81548173ffffffffffffffffffffffffffffffffffffffff021916908373ffffffffffffffffffffffffffffffffffffffff16021790555060019050611bb3565b600090505b90565b8060029080519060200190611bcc929190611c50565b5050565b828054600181600116156101000203166002900490600052602060002090601f016020900481019282601f10611c1157803560ff1916838001178555611c3f565b82800160010185558215611c3f579182015b82811115611c3e578235825591602001919060010190611c23565b5b509050611c4c9190611cd0565b5090565b828054600181600116156101000203166002900490600052602060002090601f016020900481019282601f10611c9157805160ff1916838001178555611cbf565b82800160010185558215611cbf579182015b82811115611cbe578251825591602001919060010190611ca3565b5b509050611ccc9190611cd0565b5090565b611cf291905b80821115611cee576000816000905550600101611cd6565b5090565b905600a165627a7a723058209bc318dc5a51a6aa8f46b6b665cc87a1e7317e66cce9157b32b51201519d3bec0029",
  "source": "pragma solidity ^0.4.24;\r\n\r\nimport \"installed_contracts/oraclize-api/contracts/usingOraclize.sol\";\r\nimport \"../../node_modules/zeppelin-solidity/contracts/ownership/Ownable.sol\";\r\n\r\ncontract PocDap is usingOraclize, Ownable {\r\n    \r\n    uint articleRegisryFee = 0.001 ether;  \r\n    string urlOraclize = \"json(https://api.coinbase.com/v2/prices/ETH-USD/spot).data.amount\";\r\n    \r\n    event CallbackReceived(string result);\r\n\r\n    constructor(address oraclizeAddress) public {\r\n        OAR = OraclizeAddrResolverI(oraclizeAddress);\r\n\r\n        oraclize_setProof(proofType_TLSNotary | proofStorage_IPFS);\r\n    }\r\n\r\n    function setArticleRegisryFee(uint _fee) external onlyOwner {\r\n        articleRegisryFee = _fee;\r\n    }\r\n\r\n    function setUrlOraclize(string _url) external onlyOwner {\r\n        urlOraclize = _url;\r\n    }\r\n\r\n    // Fallback function\r\n    function() public{\r\n        revert(\"reverted\");\r\n    }\r\n\r\n    function __callback(bytes32 id, string result, bytes proof) public {\r\n        require(msg.sender == oraclize_cbAddress(), \"This address is not a valid coinbase\");\r\n\r\n        emit CallbackReceived(result);        \r\n    }\r\n\r\n    function refreshEthPrice() public payable {\r\n        uint estimatedTransactionPrice = oraclize_getPrice(\"URL\") + articleRegisryFee;\r\n        require(estimatedTransactionPrice < msg.value, \"Not enough gas to execute this method\");\r\n        oraclize_query(\"URL\", urlOraclize);\r\n    }\r\n\r\n\r\n}",
  "sourcePath": "C:\\Users\\Helfstein\\Desktop\\TCC\\pocdapp\\src\\contracts\\PocDap.sol",
  "compiler": {
    "name": "solc",
    "version": "0.4.24+commit.e67f0147.Emscripten.clang"
  },
  "schemaVersion": "2.0.1",
  "updatedAt": "2018-08-27T02:18:04.275Z"
}